{
  "_format": "hh-sol-artifact-1",
  "contractName": "NFTGenerator",
  "sourceName": "contracts/NFTGenerator.sol",
  "abi": [
    {
      "inputs": [],
      "stateMutability": "nonpayable",
      "type": "constructor"
    },
    {
      "anonymous": false,
      "inputs": [
        {
          "indexed": true,
          "internalType": "address",
          "name": "owner",
          "type": "address"
        },
        {
          "indexed": true,
          "internalType": "address",
          "name": "approved",
          "type": "address"
        },
        {
          "indexed": true,
          "internalType": "uint256",
          "name": "tokenId",
          "type": "uint256"
        }
      ],
      "name": "Approval",
      "type": "event"
    },
    {
      "anonymous": false,
      "inputs": [
        {
          "indexed": true,
          "internalType": "address",
          "name": "owner",
          "type": "address"
        },
        {
          "indexed": true,
          "internalType": "address",
          "name": "operator",
          "type": "address"
        },
        {
          "indexed": false,
          "internalType": "bool",
          "name": "approved",
          "type": "bool"
        }
      ],
      "name": "ApprovalForAll",
      "type": "event"
    },
    {
      "anonymous": false,
      "inputs": [
        {
          "indexed": false,
          "internalType": "address",
          "name": "sender",
          "type": "address"
        },
        {
          "indexed": false,
          "internalType": "uint256",
          "name": "tokenId",
          "type": "uint256"
        }
      ],
      "name": "NewEpicNFTMinted",
      "type": "event"
    },
    {
      "anonymous": false,
      "inputs": [
        {
          "indexed": true,
          "internalType": "address",
          "name": "from",
          "type": "address"
        },
        {
          "indexed": true,
          "internalType": "address",
          "name": "to",
          "type": "address"
        },
        {
          "indexed": true,
          "internalType": "uint256",
          "name": "tokenId",
          "type": "uint256"
        }
      ],
      "name": "Transfer",
      "type": "event"
    },
    {
      "inputs": [
        {
          "internalType": "address",
          "name": "to",
          "type": "address"
        },
        {
          "internalType": "uint256",
          "name": "tokenId",
          "type": "uint256"
        }
      ],
      "name": "approve",
      "outputs": [],
      "stateMutability": "nonpayable",
      "type": "function"
    },
    {
      "inputs": [
        {
          "internalType": "address",
          "name": "owner",
          "type": "address"
        }
      ],
      "name": "balanceOf",
      "outputs": [
        {
          "internalType": "uint256",
          "name": "",
          "type": "uint256"
        }
      ],
      "stateMutability": "view",
      "type": "function"
    },
    {
      "inputs": [],
      "name": "createNFT",
      "outputs": [],
      "stateMutability": "nonpayable",
      "type": "function"
    },
    {
      "inputs": [
        {
          "internalType": "uint256",
          "name": "tokenId",
          "type": "uint256"
        }
      ],
      "name": "getApproved",
      "outputs": [
        {
          "internalType": "address",
          "name": "",
          "type": "address"
        }
      ],
      "stateMutability": "view",
      "type": "function"
    },
    {
      "inputs": [
        {
          "internalType": "address",
          "name": "owner",
          "type": "address"
        },
        {
          "internalType": "address",
          "name": "operator",
          "type": "address"
        }
      ],
      "name": "isApprovedForAll",
      "outputs": [
        {
          "internalType": "bool",
          "name": "",
          "type": "bool"
        }
      ],
      "stateMutability": "view",
      "type": "function"
    },
    {
      "inputs": [],
      "name": "name",
      "outputs": [
        {
          "internalType": "string",
          "name": "",
          "type": "string"
        }
      ],
      "stateMutability": "view",
      "type": "function"
    },
    {
      "inputs": [
        {
          "internalType": "uint256",
          "name": "tokenId",
          "type": "uint256"
        }
      ],
      "name": "ownerOf",
      "outputs": [
        {
          "internalType": "address",
          "name": "",
          "type": "address"
        }
      ],
      "stateMutability": "view",
      "type": "function"
    },
    {
      "inputs": [
        {
          "internalType": "uint256",
          "name": "tokenId",
          "type": "uint256"
        }
      ],
      "name": "pickRandomFirstWord",
      "outputs": [
        {
          "internalType": "string",
          "name": "",
          "type": "string"
        }
      ],
      "stateMutability": "view",
      "type": "function"
    },
    {
      "inputs": [
        {
          "internalType": "uint256",
          "name": "tokenId",
          "type": "uint256"
        }
      ],
      "name": "pickRandomSecondWord",
      "outputs": [
        {
          "internalType": "string",
          "name": "",
          "type": "string"
        }
      ],
      "stateMutability": "view",
      "type": "function"
    },
    {
      "inputs": [
        {
          "internalType": "uint256",
          "name": "tokenId",
          "type": "uint256"
        }
      ],
      "name": "pickRandomThirdWord",
      "outputs": [
        {
          "internalType": "string",
          "name": "",
          "type": "string"
        }
      ],
      "stateMutability": "view",
      "type": "function"
    },
    {
      "inputs": [
        {
          "internalType": "address",
          "name": "from",
          "type": "address"
        },
        {
          "internalType": "address",
          "name": "to",
          "type": "address"
        },
        {
          "internalType": "uint256",
          "name": "tokenId",
          "type": "uint256"
        }
      ],
      "name": "safeTransferFrom",
      "outputs": [],
      "stateMutability": "nonpayable",
      "type": "function"
    },
    {
      "inputs": [
        {
          "internalType": "address",
          "name": "from",
          "type": "address"
        },
        {
          "internalType": "address",
          "name": "to",
          "type": "address"
        },
        {
          "internalType": "uint256",
          "name": "tokenId",
          "type": "uint256"
        },
        {
          "internalType": "bytes",
          "name": "data",
          "type": "bytes"
        }
      ],
      "name": "safeTransferFrom",
      "outputs": [],
      "stateMutability": "nonpayable",
      "type": "function"
    },
    {
      "inputs": [
        {
          "internalType": "address",
          "name": "operator",
          "type": "address"
        },
        {
          "internalType": "bool",
          "name": "approved",
          "type": "bool"
        }
      ],
      "name": "setApprovalForAll",
      "outputs": [],
      "stateMutability": "nonpayable",
      "type": "function"
    },
    {
      "inputs": [
        {
          "internalType": "bytes4",
          "name": "interfaceId",
          "type": "bytes4"
        }
      ],
      "name": "supportsInterface",
      "outputs": [
        {
          "internalType": "bool",
          "name": "",
          "type": "bool"
        }
      ],
      "stateMutability": "view",
      "type": "function"
    },
    {
      "inputs": [],
      "name": "symbol",
      "outputs": [
        {
          "internalType": "string",
          "name": "",
          "type": "string"
        }
      ],
      "stateMutability": "view",
      "type": "function"
    },
    {
      "inputs": [
        {
          "internalType": "uint256",
          "name": "tokenId",
          "type": "uint256"
        }
      ],
      "name": "tokenURI",
      "outputs": [
        {
          "internalType": "string",
          "name": "",
          "type": "string"
        }
      ],
      "stateMutability": "view",
      "type": "function"
    },
    {
      "inputs": [
        {
          "internalType": "address",
          "name": "from",
          "type": "address"
        },
        {
          "internalType": "address",
          "name": "to",
          "type": "address"
        },
        {
          "internalType": "uint256",
          "name": "tokenId",
          "type": "uint256"
        }
      ],
      "name": "transferFrom",
      "outputs": [],
      "stateMutability": "nonpayable",
      "type": "function"
    }
  ],
  "bytecode": "0x60806040526040518060a001604052806063815260200162005a2860639139600890816200002e919062001ee4565b5060405180606001604052806039815260200162005a8b603991396009908162000059919062001ee4565b5060405180606001604052806025815260200162005ac460259139600a908162000084919062001ee4565b506040518061048001604052806040518060400160405280600781526020017f233030303030300000000000000000000000000000000000000000000000000081525081526020016040518060400160405280600781526020017f233333303030300000000000000000000000000000000000000000000000000081525081526020016040518060400160405280600781526020017f233636303030300000000000000000000000000000000000000000000000000081525081526020016040518060400160405280600781526020017f233939303030300000000000000000000000000000000000000000000000000081525081526020016040518060400160405280600781526020017f234343303030300000000000000000000000000000000000000000000000000081525081526020016040518060400160405280600781526020017f234646303030300000000000000000000000000000000000000000000000000081525081526020016040518060400160405280600781526020017f233030333330300000000000000000000000000000000000000000000000000081525081526020016040518060400160405280600781526020017f233333333330300000000000000000000000000000000000000000000000000081525081526020016040518060400160405280600781526020017f233636333330300000000000000000000000000000000000000000000000000081525081526020016040518060400160405280600781526020017f233939333330300000000000000000000000000000000000000000000000000081525081526020016040518060400160405280600781526020017f234343333330300000000000000000000000000000000000000000000000000081525081526020016040518060400160405280600781526020017f234646333330300000000000000000000000000000000000000000000000000081525081526020016040518060400160405280600781526020017f233030363630300000000000000000000000000000000000000000000000000081525081526020016040518060400160405280600781526020017f233333363630300000000000000000000000000000000000000000000000000081525081526020016040518060400160405280600781526020017f233636363630300000000000000000000000000000000000000000000000000081525081526020016040518060400160405280600781526020017f233939363630300000000000000000000000000000000000000000000000000081525081526020016040518060400160405280600781526020017f234343363630300000000000000000000000000000000000000000000000000081525081526020016040518060400160405280600781526020017f234646363630300000000000000000000000000000000000000000000000000081525081526020016040518060400160405280600781526020017f233030393930300000000000000000000000000000000000000000000000000081525081526020016040518060400160405280600781526020017f233333393930300000000000000000000000000000000000000000000000000081525081526020016040518060400160405280600781526020017f233636393930300000000000000000000000000000000000000000000000000081525081526020016040518060400160405280600781526020017f233939393930300000000000000000000000000000000000000000000000000081525081526020016040518060400160405280600781526020017f234343393930300000000000000000000000000000000000000000000000000081525081526020016040518060400160405280600781526020017f234646393930300000000000000000000000000000000000000000000000000081525081526020016040518060400160405280600781526020017f233030434330300000000000000000000000000000000000000000000000000081525081526020016040518060400160405280600781526020017f233333434330300000000000000000000000000000000000000000000000000081525081526020016040518060400160405280600781526020017f233636434330300000000000000000000000000000000000000000000000000081525081526020016040518060400160405280600781526020017f233939434330300000000000000000000000000000000000000000000000000081525081526020016040518060400160405280600781526020017f234343434330300000000000000000000000000000000000000000000000000081525081526020016040518060400160405280600781526020017f234646434330300000000000000000000000000000000000000000000000000081525081526020016040518060400160405280600781526020017f233030464630300000000000000000000000000000000000000000000000000081525081526020016040518060400160405280600781526020017f233333464630300000000000000000000000000000000000000000000000000081525081526020016040518060400160405280600781526020017f233636464630300000000000000000000000000000000000000000000000000081525081526020016040518060400160405280600781526020017f233939464630300000000000000000000000000000000000000000000000000081525081526020016040518060400160405280600781526020017f234343464630300000000000000000000000000000000000000000000000000081525081526020016040518060400160405280600681526020017f2346464646300000000000000000000000000000000000000000000000000000815250815250600b906024620008ed92919062001b7d565b506040518061048001604052806040518060400160405280600781526020017f233030303030300000000000000000000000000000000000000000000000000081525081526020016040518060400160405280600781526020017f233333303030300000000000000000000000000000000000000000000000000081525081526020016040518060400160405280600781526020017f233636303030300000000000000000000000000000000000000000000000000081525081526020016040518060400160405280600781526020017f233939303030300000000000000000000000000000000000000000000000000081525081526020016040518060400160405280600781526020017f234343303030300000000000000000000000000000000000000000000000000081525081526020016040518060400160405280600781526020017f234646303030300000000000000000000000000000000000000000000000000081525081526020016040518060400160405280600781526020017f233030333330300000000000000000000000000000000000000000000000000081525081526020016040518060400160405280600781526020017f233333333330300000000000000000000000000000000000000000000000000081525081526020016040518060400160405280600781526020017f233636333330300000000000000000000000000000000000000000000000000081525081526020016040518060400160405280600781526020017f233939333330300000000000000000000000000000000000000000000000000081525081526020016040518060400160405280600781526020017f234343333330300000000000000000000000000000000000000000000000000081525081526020016040518060400160405280600781526020017f234646333330300000000000000000000000000000000000000000000000000081525081526020016040518060400160405280600781526020017f233030363630300000000000000000000000000000000000000000000000000081525081526020016040518060400160405280600781526020017f233333363630300000000000000000000000000000000000000000000000000081525081526020016040518060400160405280600781526020017f233636363630300000000000000000000000000000000000000000000000000081525081526020016040518060400160405280600781526020017f233939363630300000000000000000000000000000000000000000000000000081525081526020016040518060400160405280600781526020017f234343363630300000000000000000000000000000000000000000000000000081525081526020016040518060400160405280600781526020017f234646363630300000000000000000000000000000000000000000000000000081525081526020016040518060400160405280600781526020017f233030393930300000000000000000000000000000000000000000000000000081525081526020016040518060400160405280600781526020017f233333393930300000000000000000000000000000000000000000000000000081525081526020016040518060400160405280600781526020017f233636393930300000000000000000000000000000000000000000000000000081525081526020016040518060400160405280600781526020017f233939393930300000000000000000000000000000000000000000000000000081525081526020016040518060400160405280600781526020017f234343393930300000000000000000000000000000000000000000000000000081525081526020016040518060400160405280600781526020017f234646393930300000000000000000000000000000000000000000000000000081525081526020016040518060400160405280600781526020017f233030434330300000000000000000000000000000000000000000000000000081525081526020016040518060400160405280600781526020017f233333434330300000000000000000000000000000000000000000000000000081525081526020016040518060400160405280600781526020017f233636434330300000000000000000000000000000000000000000000000000081525081526020016040518060400160405280600781526020017f233939434330300000000000000000000000000000000000000000000000000081525081526020016040518060400160405280600781526020017f234343434330300000000000000000000000000000000000000000000000000081525081526020016040518060400160405280600781526020017f234646434330300000000000000000000000000000000000000000000000000081525081526020016040518060400160405280600781526020017f233030464630300000000000000000000000000000000000000000000000000081525081526020016040518060400160405280600781526020017f233333464630300000000000000000000000000000000000000000000000000081525081526020016040518060400160405280600781526020017f233636464630300000000000000000000000000000000000000000000000000081525081526020016040518060400160405280600781526020017f233939464630300000000000000000000000000000000000000000000000000081525081526020016040518060400160405280600781526020017f234343464630300000000000000000000000000000000000000000000000000081525081526020016040518060400160405280600681526020017f2346464646300000000000000000000000000000000000000000000000000000815250815250600c9060246200115692919062001b7d565b506040518061048001604052806040518060400160405280600781526020017f233030303030300000000000000000000000000000000000000000000000000081525081526020016040518060400160405280600781526020017f233333303030300000000000000000000000000000000000000000000000000081525081526020016040518060400160405280600781526020017f233636303030300000000000000000000000000000000000000000000000000081525081526020016040518060400160405280600781526020017f233939303030300000000000000000000000000000000000000000000000000081525081526020016040518060400160405280600781526020017f234343303030300000000000000000000000000000000000000000000000000081525081526020016040518060400160405280600781526020017f234646303030300000000000000000000000000000000000000000000000000081525081526020016040518060400160405280600781526020017f233030333330300000000000000000000000000000000000000000000000000081525081526020016040518060400160405280600781526020017f233333333330300000000000000000000000000000000000000000000000000081525081526020016040518060400160405280600781526020017f233636333330300000000000000000000000000000000000000000000000000081525081526020016040518060400160405280600781526020017f233939333330300000000000000000000000000000000000000000000000000081525081526020016040518060400160405280600781526020017f234343333330300000000000000000000000000000000000000000000000000081525081526020016040518060400160405280600781526020017f234646333330300000000000000000000000000000000000000000000000000081525081526020016040518060400160405280600781526020017f233030363630300000000000000000000000000000000000000000000000000081525081526020016040518060400160405280600781526020017f233333363630300000000000000000000000000000000000000000000000000081525081526020016040518060400160405280600781526020017f233636363630300000000000000000000000000000000000000000000000000081525081526020016040518060400160405280600781526020017f233939363630300000000000000000000000000000000000000000000000000081525081526020016040518060400160405280600781526020017f234343363630300000000000000000000000000000000000000000000000000081525081526020016040518060400160405280600781526020017f234646363630300000000000000000000000000000000000000000000000000081525081526020016040518060400160405280600781526020017f233030393930300000000000000000000000000000000000000000000000000081525081526020016040518060400160405280600781526020017f233333393930300000000000000000000000000000000000000000000000000081525081526020016040518060400160405280600781526020017f233636393930300000000000000000000000000000000000000000000000000081525081526020016040518060400160405280600781526020017f233939393930300000000000000000000000000000000000000000000000000081525081526020016040518060400160405280600781526020017f234343393930300000000000000000000000000000000000000000000000000081525081526020016040518060400160405280600781526020017f234646393930300000000000000000000000000000000000000000000000000081525081526020016040518060400160405280600781526020017f233030434330300000000000000000000000000000000000000000000000000081525081526020016040518060400160405280600781526020017f233333434330300000000000000000000000000000000000000000000000000081525081526020016040518060400160405280600781526020017f233636434330300000000000000000000000000000000000000000000000000081525081526020016040518060400160405280600781526020017f233939434330300000000000000000000000000000000000000000000000000081525081526020016040518060400160405280600781526020017f234343434330300000000000000000000000000000000000000000000000000081525081526020016040518060400160405280600781526020017f234646434330300000000000000000000000000000000000000000000000000081525081526020016040518060400160405280600781526020017f233030464630300000000000000000000000000000000000000000000000000081525081526020016040518060400160405280600781526020017f233333464630300000000000000000000000000000000000000000000000000081525081526020016040518060400160405280600781526020017f233636464630300000000000000000000000000000000000000000000000000081525081526020016040518060400160405280600781526020017f233939464630300000000000000000000000000000000000000000000000000081525081526020016040518060400160405280600781526020017f234343464630300000000000000000000000000000000000000000000000000081525081526020016040518060400160405280600681526020017f2346464646300000000000000000000000000000000000000000000000000000815250815250600d906024620019bf92919062001b7d565b50348015620019cd57600080fd5b506040518060400160405280600781526020017f666c61674e4654000000000000000000000000000000000000000000000000008152506040518060400160405280600481526020017f464c414700000000000000000000000000000000000000000000000000000000815250816000908162001a4b919062001ee4565b50806001908162001a5d919062001ee4565b50505062001aab6040518060400160405280601781526020017f546869732069732061204e465420636f6e74726163742e00000000000000000081525062001ab160201b62000f241760201c565b6200207e565b62001b518160405160240162001ac891906200205a565b6040516020818303038152906040527f41304fac000000000000000000000000000000000000000000000000000000007bffffffffffffffffffffffffffffffffffffffffffffffffffffffff19166020820180517bffffffffffffffffffffffffffffffffffffffffffffffffffffffff838183161783525050505062001b5460201b60201c565b50565b60008151905060006a636f6e736f6c652e6c6f679050602083016000808483855afa5050505050565b82805482825590600052602060002090810192821562001bca579160200282015b8281111562001bc957825182908162001bb8919062001ee4565b509160200191906001019062001b9e565b5b50905062001bd9919062001bdd565b5090565b5b8082111562001c01576000818162001bf7919062001c05565b5060010162001bde565b5090565b50805462001c139062001cd3565b6000825580601f1062001c27575062001c48565b601f01602090049060005260206000209081019062001c47919062001c4b565b5b50565b5b8082111562001c6657600081600090555060010162001c4c565b5090565b600081519050919050565b7f4e487b7100000000000000000000000000000000000000000000000000000000600052604160045260246000fd5b7f4e487b7100000000000000000000000000000000000000000000000000000000600052602260045260246000fd5b6000600282049050600182168062001cec57607f821691505b60208210810362001d025762001d0162001ca4565b5b50919050565b60008190508160005260206000209050919050565b60006020601f8301049050919050565b600082821b905092915050565b60006008830262001d6c7fffffffffffffffffffffffffffffffffffffffffffffffffffffffffffffffff8262001d2d565b62001d78868362001d2d565b95508019841693508086168417925050509392505050565b6000819050919050565b6000819050919050565b600062001dc562001dbf62001db98462001d90565b62001d9a565b62001d90565b9050919050565b6000819050919050565b62001de18362001da4565b62001df962001df08262001dcc565b84845462001d3a565b825550505050565b600090565b62001e1062001e01565b62001e1d81848462001dd6565b505050565b5b8181101562001e455762001e3960008262001e06565b60018101905062001e23565b5050565b601f82111562001e945762001e5e8162001d08565b62001e698462001d1d565b8101602085101562001e79578190505b62001e9162001e888562001d1d565b83018262001e22565b50505b505050565b600082821c905092915050565b600062001eb96000198460080262001e99565b1980831691505092915050565b600062001ed4838362001ea6565b9150826002028217905092915050565b62001eef8262001c6a565b67ffffffffffffffff81111562001f0b5762001f0a62001c75565b5b62001f17825462001cd3565b62001f2482828562001e49565b600060209050601f83116001811462001f5c576000841562001f47578287015190505b62001f53858262001ec6565b86555062001fc3565b601f19841662001f6c8662001d08565b60005b8281101562001f965784890151825560018201915060208501945060208101905062001f6f565b8683101562001fb6578489015162001fb2601f89168262001ea6565b8355505b6001600288020188555050505b505050505050565b600082825260208201905092915050565b60005b8381101562001ffc57808201518184015260208101905062001fdf565b60008484015250505050565b6000601f19601f8301169050919050565b6000620020268262001c6a565b62002032818562001fcb565b93506200204481856020860162001fdc565b6200204f8162002008565b840191505092915050565b6000602082019050818103600083015262002076818462002019565b905092915050565b61399a806200208e6000396000f3fe608060405234801561001057600080fd5b506004361061010b5760003560e01c806370a08231116100a2578063b187301f11610071578063b187301f146102b6578063b88d4fde146102e6578063c575757a14610302578063c87b56dd14610332578063e985e9c5146103625761010b565b806370a08231146102425780638a97ec2a1461027257806395d89b411461027c578063a22cb4651461029a5761010b565b806323b872dd116100de57806323b872dd146101aa5780632de38d68146101c657806342842e0e146101f65780636352211e146102125761010b565b806301ffc9a71461011057806306fdde0314610140578063081812fc1461015e578063095ea7b31461018e575b600080fd5b61012a60048036038101906101259190612283565b610392565b60405161013791906122cb565b60405180910390f35b610148610474565b6040516101559190612376565b60405180910390f35b610178600480360381019061017391906123ce565b610506565b604051610185919061243c565b60405180910390f35b6101a860048036038101906101a39190612483565b61054c565b005b6101c460048036038101906101bf91906124c3565b610663565b005b6101e060048036038101906101db91906123ce565b6106c3565b6040516101ed9190612376565b60405180910390f35b610210600480360381019061020b91906124c3565b6107bb565b005b61022c600480360381019061022791906123ce565b6107db565b604051610239919061243c565b60405180910390f35b61025c60048036038101906102579190612516565b610861565b6040516102699190612552565b60405180910390f35b61027a610918565b005b610284610a84565b6040516102919190612376565b60405180910390f35b6102b460048036038101906102af9190612599565b610b16565b005b6102d060048036038101906102cb91906123ce565b610b2c565b6040516102dd9190612376565b60405180910390f35b61030060048036038101906102fb919061270e565b610c24565b005b61031c600480360381019061031791906123ce565b610c86565b6040516103299190612376565b60405180910390f35b61034c600480360381019061034791906123ce565b610d7e565b6040516103599190612376565b60405180910390f35b61037c60048036038101906103779190612791565b610e90565b60405161038991906122cb565b60405180910390f35b60007f80ac58cd000000000000000000000000000000000000000000000000000000007bffffffffffffffffffffffffffffffffffffffffffffffffffffffff1916827bffffffffffffffffffffffffffffffffffffffffffffffffffffffff1916148061045d57507f5b5e139f000000000000000000000000000000000000000000000000000000007bffffffffffffffffffffffffffffffffffffffffffffffffffffffff1916827bffffffffffffffffffffffffffffffffffffffffffffffffffffffff1916145b8061046d575061046c82610fbd565b5b9050919050565b60606000805461048390612800565b80601f01602080910402602001604051908101604052809291908181526020018280546104af90612800565b80156104fc5780601f106104d1576101008083540402835291602001916104fc565b820191906000526020600020905b8154815290600101906020018083116104df57829003601f168201915b5050505050905090565b600061051182611027565b6004600083815260200190815260200160002060009054906101000a900473ffffffffffffffffffffffffffffffffffffffff169050919050565b6000610557826107db565b90508073ffffffffffffffffffffffffffffffffffffffff168373ffffffffffffffffffffffffffffffffffffffff16036105c7576040517f08c379a00000000000000000000000000000000000000000000000000000000081526004016105be906128a3565b60405180910390fd5b8073ffffffffffffffffffffffffffffffffffffffff166105e6611072565b73ffffffffffffffffffffffffffffffffffffffff16148061061557506106148161060f611072565b610e90565b5b610654576040517f08c379a000000000000000000000000000000000000000000000000000000000815260040161064b90612935565b60405180910390fd5b61065e838361107a565b505050565b61067461066e611072565b82611133565b6106b3576040517f08c379a00000000000000000000000000000000000000000000000000000000081526004016106aa906129c7565b60405180910390fd5b6106be8383836111c8565b505050565b606060006106f76106d3846114c1565b6040516020016106e39190612a6f565b60405160208183030381529060405261158f565b9050600b805490508161070a9190612ac0565b9050600b81815481106107205761071f612af1565b5b90600052602060002001805461073590612800565b80601f016020809104026020016040519081016040528092919081815260200182805461076190612800565b80156107ae5780601f10610783576101008083540402835291602001916107ae565b820191906000526020600020905b81548152906001019060200180831161079157829003601f168201915b5050505050915050919050565b6107d683838360405180602001604052806000815250610c24565b505050565b6000806107e7836115c2565b9050600073ffffffffffffffffffffffffffffffffffffffff168173ffffffffffffffffffffffffffffffffffffffff1603610858576040517f08c379a000000000000000000000000000000000000000000000000000000000815260040161084f90612b6c565b60405180910390fd5b80915050919050565b60008073ffffffffffffffffffffffffffffffffffffffff168273ffffffffffffffffffffffffffffffffffffffff16036108d1576040517f08c379a00000000000000000000000000000000000000000000000000000000081526004016108c890612bfe565b60405180910390fd5b600360008373ffffffffffffffffffffffffffffffffffffffff1673ffffffffffffffffffffffffffffffffffffffff168152602001908152602001600020549050919050565b600061092460076115ff565b90506000610931826106c3565b9050600061093e83610b2c565b9050600061094b84610c86565b9050600083838360405160200161096493929190612c1e565b60405160208183030381529060405290506000600885600986600a8760405160200161099596959493929190612d33565b604051602081830303815290604052905060006109da836109b58461160d565b6040516020016109c6929190612eec565b60405160208183030381529060405261160d565b90506000816040516020016109ef9190612f7d565b6040516020818303038152906040529050610a0a3389611785565b610a1488826117a3565b610a1e6007611810565b610a41604051806060016040528060258152602001613900602591398933611826565b7febb98688741ffa4c7589bf325de30cf7becb63de567842e1ccdb6cb949fdc82c3389604051610a72929190612f9f565b60405180910390a15050505050505050565b606060018054610a9390612800565b80601f0160208091040260200160405190810160405280929190818152602001828054610abf90612800565b8015610b0c5780601f10610ae157610100808354040283529160200191610b0c565b820191906000526020600020905b815481529060010190602001808311610aef57829003601f168201915b5050505050905090565b610b28610b21611072565b83836118c5565b5050565b60606000610b60610b3c846114c1565b604051602001610b4c9190613014565b60405160208183030381529060405261158f565b9050600c8054905081610b739190612ac0565b9050600c8181548110610b8957610b88612af1565b5b906000526020600020018054610b9e90612800565b80601f0160208091040260200160405190810160405280929190818152602001828054610bca90612800565b8015610c175780601f10610bec57610100808354040283529160200191610c17565b820191906000526020600020905b815481529060010190602001808311610bfa57829003601f168201915b5050505050915050919050565b610c35610c2f611072565b83611133565b610c74576040517f08c379a0000000000000000000000000000000000000000000000000000000008152600401610c6b906129c7565b60405180910390fd5b610c8084848484611a31565b50505050565b60606000610cba610c96846114c1565b604051602001610ca69190613082565b60405160208183030381529060405261158f565b9050600d8054905081610ccd9190612ac0565b9050600d8181548110610ce357610ce2612af1565b5b906000526020600020018054610cf890612800565b80601f0160208091040260200160405190810160405280929190818152602001828054610d2490612800565b8015610d715780601f10610d4657610100808354040283529160200191610d71565b820191906000526020600020905b815481529060010190602001808311610d5457829003601f168201915b5050505050915050919050565b6060610d8982611027565b6000600660008481526020019081526020016000208054610da990612800565b80601f0160208091040260200160405190810160405280929190818152602001828054610dd590612800565b8015610e225780601f10610df757610100808354040283529160200191610e22565b820191906000526020600020905b815481529060010190602001808311610e0557829003601f168201915b505050505090506000610e33611a8d565b90506000815103610e48578192505050610e8b565b600082511115610e7d578082604051602001610e659291906130a4565b60405160208183030381529060405292505050610e8b565b610e8684611aa4565b925050505b919050565b6000600560008473ffffffffffffffffffffffffffffffffffffffff1673ffffffffffffffffffffffffffffffffffffffff16815260200190815260200160002060008373ffffffffffffffffffffffffffffffffffffffff1673ffffffffffffffffffffffffffffffffffffffff16815260200190815260200160002060009054906101000a900460ff16905092915050565b610fba81604051602401610f389190612376565b6040516020818303038152906040527f41304fac000000000000000000000000000000000000000000000000000000007bffffffffffffffffffffffffffffffffffffffffffffffffffffffff19166020820180517bffffffffffffffffffffffffffffffffffffffffffffffffffffffff8381831617835250505050611b0c565b50565b60007f01ffc9a7000000000000000000000000000000000000000000000000000000007bffffffffffffffffffffffffffffffffffffffffffffffffffffffff1916827bffffffffffffffffffffffffffffffffffffffffffffffffffffffff1916149050919050565b61103081611b35565b61106f576040517f08c379a000000000000000000000000000000000000000000000000000000000815260040161106690612b6c565b60405180910390fd5b50565b600033905090565b816004600083815260200190815260200160002060006101000a81548173ffffffffffffffffffffffffffffffffffffffff021916908373ffffffffffffffffffffffffffffffffffffffff160217905550808273ffffffffffffffffffffffffffffffffffffffff166110ed836107db565b73ffffffffffffffffffffffffffffffffffffffff167f8c5be1e5ebec7d5bd14f71427d1e84f3dd0314c0f7b2291e5b200ac8c7c3b92560405160405180910390a45050565b60008061113f836107db565b90508073ffffffffffffffffffffffffffffffffffffffff168473ffffffffffffffffffffffffffffffffffffffff16148061118157506111808185610e90565b5b806111bf57508373ffffffffffffffffffffffffffffffffffffffff166111a784610506565b73ffffffffffffffffffffffffffffffffffffffff16145b91505092915050565b8273ffffffffffffffffffffffffffffffffffffffff166111e8826107db565b73ffffffffffffffffffffffffffffffffffffffff161461123e576040517f08c379a00000000000000000000000000000000000000000000000000000000081526004016112359061313a565b60405180910390fd5b600073ffffffffffffffffffffffffffffffffffffffff168273ffffffffffffffffffffffffffffffffffffffff16036112ad576040517f08c379a00000000000000000000000000000000000000000000000000000000081526004016112a4906131cc565b60405180910390fd5b6112ba8383836001611b76565b8273ffffffffffffffffffffffffffffffffffffffff166112da826107db565b73ffffffffffffffffffffffffffffffffffffffff1614611330576040517f08c379a00000000000000000000000000000000000000000000000000000000081526004016113279061313a565b60405180910390fd5b6004600082815260200190815260200160002060006101000a81549073ffffffffffffffffffffffffffffffffffffffff02191690556001600360008573ffffffffffffffffffffffffffffffffffffffff1673ffffffffffffffffffffffffffffffffffffffff168152602001908152602001600020600082825403925050819055506001600360008473ffffffffffffffffffffffffffffffffffffffff1673ffffffffffffffffffffffffffffffffffffffff16815260200190815260200160002060008282540192505081905550816002600083815260200190815260200160002060006101000a81548173ffffffffffffffffffffffffffffffffffffffff021916908373ffffffffffffffffffffffffffffffffffffffff160217905550808273ffffffffffffffffffffffffffffffffffffffff168473ffffffffffffffffffffffffffffffffffffffff167fddf252ad1be2c89b69c2b068fc378daa952ba7f163c4a11628f55a4df523b3ef60405160405180910390a46114bc8383836001611c9c565b505050565b6060600060016114d084611ca2565b01905060008167ffffffffffffffff8111156114ef576114ee6125e3565b5b6040519080825280601f01601f1916602001820160405280156115215781602001600182028036833780820191505090505b509050600082602001820190505b600115611584578080600190039150507f3031323334353637383961626364656600000000000000000000000000000000600a86061a8153600a858161157857611577612a91565b5b0494506000850361152f575b819350505050919050565b6000816040516020016115a291906131ec565b6040516020818303038152906040528051906020012060001c9050919050565b60006002600083815260200190815260200160002060009054906101000a900473ffffffffffffffffffffffffffffffffffffffff169050919050565b600081600001549050919050565b6060600082510361162f57604051806020016040528060008152509050611780565b6000604051806060016040528060408152602001613925604091399050600060036002855161165e9190613232565b6116689190613266565b60046116749190613297565b905060006020826116859190613232565b67ffffffffffffffff81111561169e5761169d6125e3565b5b6040519080825280601f01601f1916602001820160405280156116d05781602001600182028036833780820191505090505b509050818152600183018586518101602084015b8183101561173f576003830192508251603f8160121c168501518253600182019150603f81600c1c168501518253600182019150603f8160061c168501518253600182019150603f81168501518253600182019150506116e4565b600389510660018114611759576002811461176957611774565b613d3d60f01b6002830352611774565b603d60f81b60018303525b50505050508093505050505b919050565b61179f828260405180602001604052806000815250611df5565b5050565b6117ac82611b35565b6117eb576040517f08c379a00000000000000000000000000000000000000000000000000000000081526004016117e29061334b565b60405180910390fd5b8060066000848152602001908152602001600020908161180b9190613502565b505050565b6001816000016000828254019250508190555050565b6118c083838360405160240161183e939291906135d4565b6040516020818303038152906040527f1c7ec448000000000000000000000000000000000000000000000000000000007bffffffffffffffffffffffffffffffffffffffffffffffffffffffff19166020820180517bffffffffffffffffffffffffffffffffffffffffffffffffffffffff8381831617835250505050611b0c565b505050565b8173ffffffffffffffffffffffffffffffffffffffff168373ffffffffffffffffffffffffffffffffffffffff1603611933576040517f08c379a000000000000000000000000000000000000000000000000000000000815260040161192a9061365e565b60405180910390fd5b80600560008573ffffffffffffffffffffffffffffffffffffffff1673ffffffffffffffffffffffffffffffffffffffff16815260200190815260200160002060008473ffffffffffffffffffffffffffffffffffffffff1673ffffffffffffffffffffffffffffffffffffffff16815260200190815260200160002060006101000a81548160ff0219169083151502179055508173ffffffffffffffffffffffffffffffffffffffff168373ffffffffffffffffffffffffffffffffffffffff167f17307eab39ab6107e8899845ad3d59bd9653f200f220920489ca2b5937696c3183604051611a2491906122cb565b60405180910390a3505050565b611a3c8484846111c8565b611a4884848484611e50565b611a87576040517f08c379a0000000000000000000000000000000000000000000000000000000008152600401611a7e906136f0565b60405180910390fd5b50505050565b606060405180602001604052806000815250905090565b6060611aaf82611027565b6000611ab9611a8d565b90506000815111611ad95760405180602001604052806000815250611b04565b80611ae3846114c1565b604051602001611af49291906130a4565b6040516020818303038152906040525b915050919050565b60008151905060006a636f6e736f6c652e6c6f679050602083016000808483855afa5050505050565b60008073ffffffffffffffffffffffffffffffffffffffff16611b57836115c2565b73ffffffffffffffffffffffffffffffffffffffff1614159050919050565b6001811115611c9657600073ffffffffffffffffffffffffffffffffffffffff168473ffffffffffffffffffffffffffffffffffffffff1614611c0a5780600360008673ffffffffffffffffffffffffffffffffffffffff1673ffffffffffffffffffffffffffffffffffffffff1681526020019081526020016000206000828254611c029190613710565b925050819055505b600073ffffffffffffffffffffffffffffffffffffffff168373ffffffffffffffffffffffffffffffffffffffff1614611c955780600360008573ffffffffffffffffffffffffffffffffffffffff1673ffffffffffffffffffffffffffffffffffffffff1681526020019081526020016000206000828254611c8d9190613232565b925050819055505b5b50505050565b50505050565b600080600090507a184f03e93ff9f4daa797ed6e38ed64bf6a1f0100000000000000008310611d00577a184f03e93ff9f4daa797ed6e38ed64bf6a1f0100000000000000008381611cf657611cf5612a91565b5b0492506040810190505b6d04ee2d6d415b85acef81000000008310611d3d576d04ee2d6d415b85acef81000000008381611d3357611d32612a91565b5b0492506020810190505b662386f26fc100008310611d6c57662386f26fc100008381611d6257611d61612a91565b5b0492506010810190505b6305f5e1008310611d95576305f5e1008381611d8b57611d8a612a91565b5b0492506008810190505b6127108310611dba576127108381611db057611daf612a91565b5b0492506004810190505b60648310611ddd5760648381611dd357611dd2612a91565b5b0492506002810190505b600a8310611dec576001810190505b80915050919050565b611dff8383611fd7565b611e0c6000848484611e50565b611e4b576040517f08c379a0000000000000000000000000000000000000000000000000000000008152600401611e42906136f0565b60405180910390fd5b505050565b6000611e718473ffffffffffffffffffffffffffffffffffffffff166121f4565b15611fca578373ffffffffffffffffffffffffffffffffffffffff1663150b7a02611e9a611072565b8786866040518563ffffffff1660e01b8152600401611ebc9493929190613799565b6020604051808303816000875af1925050508015611ef857506040513d601f19601f82011682018060405250810190611ef591906137fa565b60015b611f7a573d8060008114611f28576040519150601f19603f3d011682016040523d82523d6000602084013e611f2d565b606091505b506000815103611f72576040517f08c379a0000000000000000000000000000000000000000000000000000000008152600401611f69906136f0565b60405180910390fd5b805181602001fd5b63150b7a0260e01b7bffffffffffffffffffffffffffffffffffffffffffffffffffffffff1916817bffffffffffffffffffffffffffffffffffffffffffffffffffffffff191614915050611fcf565b600190505b949350505050565b600073ffffffffffffffffffffffffffffffffffffffff168273ffffffffffffffffffffffffffffffffffffffff1603612046576040517f08c379a000000000000000000000000000000000000000000000000000000000815260040161203d90613873565b60405180910390fd5b61204f81611b35565b1561208f576040517f08c379a0000000000000000000000000000000000000000000000000000000008152600401612086906138df565b60405180910390fd5b61209d600083836001611b76565b6120a681611b35565b156120e6576040517f08c379a00000000000000000000000000000000000000000000000000000000081526004016120dd906138df565b60405180910390fd5b6001600360008473ffffffffffffffffffffffffffffffffffffffff1673ffffffffffffffffffffffffffffffffffffffff16815260200190815260200160002060008282540192505081905550816002600083815260200190815260200160002060006101000a81548173ffffffffffffffffffffffffffffffffffffffff021916908373ffffffffffffffffffffffffffffffffffffffff160217905550808273ffffffffffffffffffffffffffffffffffffffff16600073ffffffffffffffffffffffffffffffffffffffff167fddf252ad1be2c89b69c2b068fc378daa952ba7f163c4a11628f55a4df523b3ef60405160405180910390a46121f0600083836001611c9c565b5050565b6000808273ffffffffffffffffffffffffffffffffffffffff163b119050919050565b6000604051905090565b600080fd5b600080fd5b60007fffffffff0000000000000000000000000000000000000000000000000000000082169050919050565b6122608161222b565b811461226b57600080fd5b50565b60008135905061227d81612257565b92915050565b60006020828403121561229957612298612221565b5b60006122a78482850161226e565b91505092915050565b60008115159050919050565b6122c5816122b0565b82525050565b60006020820190506122e060008301846122bc565b92915050565b600081519050919050565b600082825260208201905092915050565b60005b83811015612320578082015181840152602081019050612305565b60008484015250505050565b6000601f19601f8301169050919050565b6000612348826122e6565b61235281856122f1565b9350612362818560208601612302565b61236b8161232c565b840191505092915050565b60006020820190508181036000830152612390818461233d565b905092915050565b6000819050919050565b6123ab81612398565b81146123b657600080fd5b50565b6000813590506123c8816123a2565b92915050565b6000602082840312156123e4576123e3612221565b5b60006123f2848285016123b9565b91505092915050565b600073ffffffffffffffffffffffffffffffffffffffff82169050919050565b6000612426826123fb565b9050919050565b6124368161241b565b82525050565b6000602082019050612451600083018461242d565b92915050565b6124608161241b565b811461246b57600080fd5b50565b60008135905061247d81612457565b92915050565b6000806040838503121561249a57612499612221565b5b60006124a88582860161246e565b92505060206124b9858286016123b9565b9150509250929050565b6000806000606084860312156124dc576124db612221565b5b60006124ea8682870161246e565b93505060206124fb8682870161246e565b925050604061250c868287016123b9565b9150509250925092565b60006020828403121561252c5761252b612221565b5b600061253a8482850161246e565b91505092915050565b61254c81612398565b82525050565b60006020820190506125676000830184612543565b92915050565b612576816122b0565b811461258157600080fd5b50565b6000813590506125938161256d565b92915050565b600080604083850312156125b0576125af612221565b5b60006125be8582860161246e565b92505060206125cf85828601612584565b9150509250929050565b600080fd5b600080fd5b7f4e487b7100000000000000000000000000000000000000000000000000000000600052604160045260246000fd5b61261b8261232c565b810181811067ffffffffffffffff8211171561263a576126396125e3565b5b80604052505050565b600061264d612217565b90506126598282612612565b919050565b600067ffffffffffffffff821115612679576126786125e3565b5b6126828261232c565b9050602081019050919050565b82818337600083830152505050565b60006126b16126ac8461265e565b612643565b9050828152602081018484840111156126cd576126cc6125de565b5b6126d884828561268f565b509392505050565b600082601f8301126126f5576126f46125d9565b5b813561270584826020860161269e565b91505092915050565b6000806000806080858703121561272857612727612221565b5b60006127368782880161246e565b94505060206127478782880161246e565b9350506040612758878288016123b9565b925050606085013567ffffffffffffffff81111561277957612778612226565b5b612785878288016126e0565b91505092959194509250565b600080604083850312156127a8576127a7612221565b5b60006127b68582860161246e565b92505060206127c78582860161246e565b9150509250929050565b7f4e487b7100000000000000000000000000000000000000000000000000000000600052602260045260246000fd5b6000600282049050600182168061281857607f821691505b60208210810361282b5761282a6127d1565b5b50919050565b7f4552433732313a20617070726f76616c20746f2063757272656e74206f776e6560008201527f7200000000000000000000000000000000000000000000000000000000000000602082015250565b600061288d6021836122f1565b915061289882612831565b604082019050919050565b600060208201905081810360008301526128bc81612880565b9050919050565b7f4552433732313a20617070726f76652063616c6c6572206973206e6f7420746f60008201527f6b656e206f776e6572206f7220617070726f76656420666f7220616c6c000000602082015250565b600061291f603d836122f1565b915061292a826128c3565b604082019050919050565b6000602082019050818103600083015261294e81612912565b9050919050565b7f4552433732313a2063616c6c6572206973206e6f7420746f6b656e206f776e6560008201527f72206f7220617070726f76656400000000000000000000000000000000000000602082015250565b60006129b1602d836122f1565b91506129bc82612955565b604082019050919050565b600060208201905081810360008301526129e0816129a4565b9050919050565b600081905092915050565b7f46495253545f574f524400000000000000000000000000000000000000000000600082015250565b6000612a28600a836129e7565b9150612a33826129f2565b600a82019050919050565b6000612a49826122e6565b612a5381856129e7565b9350612a63818560208601612302565b80840191505092915050565b6000612a7a82612a1b565b9150612a868284612a3e565b915081905092915050565b7f4e487b7100000000000000000000000000000000000000000000000000000000600052601260045260246000fd5b6000612acb82612398565b9150612ad683612398565b925082612ae657612ae5612a91565b5b828206905092915050565b7f4e487b7100000000000000000000000000000000000000000000000000000000600052603260045260246000fd5b7f4552433732313a20696e76616c696420746f6b656e2049440000000000000000600082015250565b6000612b566018836122f1565b9150612b6182612b20565b602082019050919050565b60006020820190508181036000830152612b8581612b49565b9050919050565b7f4552433732313a2061646472657373207a65726f206973206e6f74206120766160008201527f6c6964206f776e65720000000000000000000000000000000000000000000000602082015250565b6000612be86029836122f1565b9150612bf382612b8c565b604082019050919050565b60006020820190508181036000830152612c1781612bdb565b9050919050565b6000612c2a8286612a3e565b9150612c368285612a3e565b9150612c428284612a3e565b9150819050949350505050565b60008190508160005260206000209050919050565b60008154612c7181612800565b612c7b81866129e7565b94506001821660008114612c965760018114612cab57612cde565b60ff1983168652811515820286019350612cde565b612cb485612c4f565b60005b83811015612cd657815481890152600182019150602081019050612cb7565b838801955050505b50505092915050565b7f272f3e3c2f7376673e0000000000000000000000000000000000000000000000600082015250565b6000612d1d6009836129e7565b9150612d2882612ce7565b600982019050919050565b6000612d3f8289612c64565b9150612d4b8288612a3e565b9150612d578287612c64565b9150612d638286612a3e565b9150612d6f8285612c64565b9150612d7b8284612a3e565b9150612d8682612d10565b9150819050979650505050505050565b7f7b226e616d65223a2022466c6167000000000000000000000000000000000000600082015250565b6000612dcc600e836129e7565b9150612dd782612d96565b600e82019050919050565b7f222c20226465736372697074696f6e223a20224120686967686c79206163636c60008201527f61696d656420636f6c6c656374696f6e206f6620666c6167732e222c2022696d60208201527f616765223a2022646174613a696d6167652f7376672b786d6c3b62617365363460408201527f2c00000000000000000000000000000000000000000000000000000000000000606082015250565b6000612e8a6061836129e7565b9150612e9582612de2565b606182019050919050565b7f227d000000000000000000000000000000000000000000000000000000000000600082015250565b6000612ed66002836129e7565b9150612ee182612ea0565b600282019050919050565b6000612ef782612dbf565b9150612f038285612a3e565b9150612f0e82612e7d565b9150612f1a8284612a3e565b9150612f2582612ec9565b91508190509392505050565b7f646174613a6170706c69636174696f6e2f6a736f6e3b6261736536342c000000600082015250565b6000612f67601d836129e7565b9150612f7282612f31565b601d82019050919050565b6000612f8882612f5a565b9150612f948284612a3e565b915081905092915050565b6000604082019050612fb4600083018561242d565b612fc16020830184612543565b9392505050565b7f5345434f4e445f574f5244000000000000000000000000000000000000000000600082015250565b6000612ffe600b836129e7565b915061300982612fc8565b600b82019050919050565b600061301f82612ff1565b915061302b8284612a3e565b915081905092915050565b7f54484952445f574f524400000000000000000000000000000000000000000000600082015250565b600061306c600a836129e7565b915061307782613036565b600a82019050919050565b600061308d8261305f565b91506130998284612a3e565b915081905092915050565b60006130b08285612a3e565b91506130bc8284612a3e565b91508190509392505050565b7f4552433732313a207472616e736665722066726f6d20696e636f72726563742060008201527f6f776e6572000000000000000000000000000000000000000000000000000000602082015250565b60006131246025836122f1565b915061312f826130c8565b604082019050919050565b6000602082019050818103600083015261315381613117565b9050919050565b7f4552433732313a207472616e7366657220746f20746865207a65726f2061646460008201527f7265737300000000000000000000000000000000000000000000000000000000602082015250565b60006131b66024836122f1565b91506131c18261315a565b604082019050919050565b600060208201905081810360008301526131e5816131a9565b9050919050565b60006131f88284612a3e565b915081905092915050565b7f4e487b7100000000000000000000000000000000000000000000000000000000600052601160045260246000fd5b600061323d82612398565b915061324883612398565b92508282019050808211156132605761325f613203565b5b92915050565b600061327182612398565b915061327c83612398565b92508261328c5761328b612a91565b5b828204905092915050565b60006132a282612398565b91506132ad83612398565b92508282026132bb81612398565b915082820484148315176132d2576132d1613203565b5b5092915050565b7f45524337323155524953746f726167653a2055524920736574206f66206e6f6e60008201527f6578697374656e7420746f6b656e000000000000000000000000000000000000602082015250565b6000613335602e836122f1565b9150613340826132d9565b604082019050919050565b6000602082019050818103600083015261336481613328565b9050919050565b60006020601f8301049050919050565b600082821b905092915050565b6000600883026133b87fffffffffffffffffffffffffffffffffffffffffffffffffffffffffffffffff8261337b565b6133c2868361337b565b95508019841693508086168417925050509392505050565b6000819050919050565b60006133ff6133fa6133f584612398565b6133da565b612398565b9050919050565b6000819050919050565b613419836133e4565b61342d61342582613406565b848454613388565b825550505050565b600090565b613442613435565b61344d818484613410565b505050565b5b818110156134715761346660008261343a565b600181019050613453565b5050565b601f8211156134b65761348781612c4f565b6134908461336b565b8101602085101561349f578190505b6134b36134ab8561336b565b830182613452565b50505b505050565b600082821c905092915050565b60006134d9600019846008026134bb565b1980831691505092915050565b60006134f283836134c8565b9150826002028217905092915050565b61350b826122e6565b67ffffffffffffffff811115613524576135236125e3565b5b61352e8254612800565b613539828285613475565b600060209050601f83116001811461356c576000841561355a578287015190505b61356485826134e6565b8655506135cc565b601f19841661357a86612c4f565b60005b828110156135a25784890151825560018201915060208501945060208101905061357d565b868310156135bf57848901516135bb601f8916826134c8565b8355505b6001600288020188555050505b505050505050565b600060608201905081810360008301526135ee818661233d565b90506135fd6020830185612543565b61360a604083018461242d565b949350505050565b7f4552433732313a20617070726f766520746f2063616c6c657200000000000000600082015250565b60006136486019836122f1565b915061365382613612565b602082019050919050565b600060208201905081810360008301526136778161363b565b9050919050565b7f4552433732313a207472616e7366657220746f206e6f6e20455243373231526560008201527f63656976657220696d706c656d656e7465720000000000000000000000000000602082015250565b60006136da6032836122f1565b91506136e58261367e565b604082019050919050565b60006020820190508181036000830152613709816136cd565b9050919050565b600061371b82612398565b915061372683612398565b925082820390508181111561373e5761373d613203565b5b92915050565b600081519050919050565b600082825260208201905092915050565b600061376b82613744565b613775818561374f565b9350613785818560208601612302565b61378e8161232c565b840191505092915050565b60006080820190506137ae600083018761242d565b6137bb602083018661242d565b6137c86040830185612543565b81810360608301526137da8184613760565b905095945050505050565b6000815190506137f481612257565b92915050565b6000602082840312156138105761380f612221565b5b600061381e848285016137e5565b91505092915050565b7f4552433732313a206d696e7420746f20746865207a65726f2061646472657373600082015250565b600061385d6020836122f1565b915061386882613827565b602082019050919050565b6000602082019050818103600083015261388c81613850565b9050919050565b7f4552433732313a20746f6b656e20616c7265616479206d696e74656400000000600082015250565b60006138c9601c836122f1565b91506138d482613893565b602082019050919050565b600060208201905081810360008301526138f8816138bc565b905091905056fe416e204e465420772f20494420257320686173206265656e206d696e74656420746f2025734142434445464748494a4b4c4d4e4f505152535455565758595a6162636465666768696a6b6c6d6e6f707172737475767778797a303132333435363738392b2fa2646970667358221220a39bfaae7b02d26a086ec6d05da489fa6ce23737d969866f46e9c15a7f8c13b464736f6c634300081100333c7376672076696577426f783d273020302039303020363030272077696474683d2739303027206865696768743d273630302720786d6c6e733d27687474703a2f2f7777772e77332e6f72672f323030302f737667273e3c706174682066696c6c3d272720643d274d302030683930307636303048307a272f3e3c7061746820643d274d3020313939683930307634303248305a272066696c6c3d27272f3e3c7061746820643d274d3020333939683930307632303248305a272066696c6c3d27",
  "linkReferences": {},
  "deployedLinkReferences": {}
}